{
  "contractName": "Loteria",
  "abi": [
    {
      "inputs": [],
      "stateMutability": "nonpayable",
      "type": "constructor"
    },
    {
      "anonymous": false,
      "inputs": [
        {
          "indexed": false,
          "internalType": "uint256",
          "name": "",
          "type": "uint256"
        },
        {
          "indexed": false,
          "internalType": "address",
          "name": "",
          "type": "address"
        }
      ],
      "name": "ComprandoTokens",
      "type": "event"
    },
    {
      "anonymous": false,
      "inputs": [
        {
          "indexed": false,
          "internalType": "uint256",
          "name": "",
          "type": "uint256"
        },
        {
          "indexed": false,
          "internalType": "address",
          "name": "",
          "type": "address"
        }
      ],
      "name": "boletoComprado",
      "type": "event"
    },
    {
      "anonymous": false,
      "inputs": [
        {
          "indexed": false,
          "internalType": "uint256",
          "name": "",
          "type": "uint256"
        }
      ],
      "name": "boletoGanador",
      "type": "event"
    },
    {
      "anonymous": false,
      "inputs": [
        {
          "indexed": false,
          "internalType": "uint256",
          "name": "",
          "type": "uint256"
        },
        {
          "indexed": false,
          "internalType": "address",
          "name": "",
          "type": "address"
        }
      ],
      "name": "tokensDevueltos",
      "type": "event"
    },
    {
      "inputs": [],
      "name": "contrato",
      "outputs": [
        {
          "internalType": "address",
          "name": "",
          "type": "address"
        }
      ],
      "stateMutability": "view",
      "type": "function",
      "constant": true
    },
    {
      "inputs": [],
      "name": "direccionGanador",
      "outputs": [
        {
          "internalType": "address",
          "name": "",
          "type": "address"
        }
      ],
      "stateMutability": "view",
      "type": "function",
      "constant": true
    },
    {
      "inputs": [],
      "name": "owner",
      "outputs": [
        {
          "internalType": "address",
          "name": "",
          "type": "address"
        }
      ],
      "stateMutability": "view",
      "type": "function",
      "constant": true
    },
    {
      "inputs": [],
      "name": "precioBoleto",
      "outputs": [
        {
          "internalType": "uint256",
          "name": "",
          "type": "uint256"
        }
      ],
      "stateMutability": "view",
      "type": "function",
      "constant": true
    },
    {
      "inputs": [],
      "name": "tokens_creados",
      "outputs": [
        {
          "internalType": "uint256",
          "name": "",
          "type": "uint256"
        }
      ],
      "stateMutability": "view",
      "type": "function",
      "constant": true
    },
    {
      "inputs": [
        {
          "internalType": "uint256",
          "name": "_numTokens",
          "type": "uint256"
        }
      ],
      "name": "generarTokens",
      "outputs": [],
      "stateMutability": "nonpayable",
      "type": "function"
    },
    {
      "inputs": [
        {
          "internalType": "address",
          "name": "_propietario",
          "type": "address"
        },
        {
          "internalType": "uint256",
          "name": "_numTokens",
          "type": "uint256"
        }
      ],
      "name": "comprarTokens",
      "outputs": [],
      "stateMutability": "payable",
      "type": "function",
      "payable": true
    },
    {
      "inputs": [],
      "name": "tokensDisponibles",
      "outputs": [
        {
          "internalType": "uint256",
          "name": "",
          "type": "uint256"
        }
      ],
      "stateMutability": "view",
      "type": "function",
      "constant": true
    },
    {
      "inputs": [],
      "name": "bote",
      "outputs": [
        {
          "internalType": "uint256",
          "name": "",
          "type": "uint256"
        }
      ],
      "stateMutability": "view",
      "type": "function",
      "constant": true
    },
    {
      "inputs": [
        {
          "internalType": "address",
          "name": "_propietario",
          "type": "address"
        }
      ],
      "name": "misTokens",
      "outputs": [
        {
          "internalType": "uint256",
          "name": "",
          "type": "uint256"
        }
      ],
      "stateMutability": "view",
      "type": "function",
      "constant": true
    },
    {
      "inputs": [
        {
          "internalType": "uint256",
          "name": "_boletos",
          "type": "uint256"
        }
      ],
      "name": "comprarBoletos",
      "outputs": [],
      "stateMutability": "nonpayable",
      "type": "function"
    },
    {
      "inputs": [],
      "name": "tusBoletos",
      "outputs": [
        {
          "internalType": "uint256[]",
          "name": "",
          "type": "uint256[]"
        }
      ],
      "stateMutability": "view",
      "type": "function",
      "constant": true
    },
    {
      "inputs": [],
      "name": "generarGanador",
      "outputs": [],
      "stateMutability": "nonpayable",
      "type": "function"
    },
    {
      "inputs": [
        {
          "internalType": "uint256",
          "name": "_numTokens",
          "type": "uint256"
        }
      ],
      "name": "devolverTokens",
      "outputs": [],
      "stateMutability": "payable",
      "type": "function",
      "payable": true
    }
  ],
  "bytecode": "0x60806040526127106004556005805560006008553480156200002057600080fd5b50600454604051620000329062000123565b6200003e919062000142565b604051809103906000f0801580156200005b573d6000803e3d6000fd5b506000806101000a81548173ffffffffffffffffffffffffffffffffffffffff021916908373ffffffffffffffffffffffffffffffffffffffff16021790555033600160006101000a81548173ffffffffffffffffffffffffffffffffffffffff021916908373ffffffffffffffffffffffffffffffffffffffff16021790555030600260006101000a81548173ffffffffffffffffffffffffffffffffffffffff021916908373ffffffffffffffffffffffffffffffffffffffff16021790555062000169565b61109d8062001ab083390190565b6200013c816200015f565b82525050565b600060208201905062000159600083018462000131565b92915050565b6000819050919050565b61193780620001796000396000f3fe6080604052600436106100dd5760003560e01c8063a8930a041161007f578063e1a01e6711610059578063e1a01e671461026c578063ec980ef914610297578063ee5ade83146102c2578063fd62ed8c146102ed576100dd565b8063a8930a04146101fc578063d5dc7bf714610225578063d7ce639a14610250576100dd565b80636b6bf01d116100bb5780636b6bf01d14610164578063779c6a4c1461018f57806389e25c28146101ba5780638da5cb5b146101d1576100dd565b806302a46743146100e25780632e95161c1461011f57806349ce7f961461013b575b600080fd5b3480156100ee57600080fd5b5061010960048036038101906101049190611127565b610318565b604051610116919061173a565b60405180910390f35b610139600480360381019061013491906111b5565b6103cb565b005b34801561014757600080fd5b50610162600480360381019061015d91906111b5565b610595565b005b34801561017057600080fd5b50610179610848565b6040516101869190611638565b60405180910390f35b34801561019b57600080fd5b506101a46108dd565b6040516101b1919061173a565b60405180910390f35b3480156101c657600080fd5b506101cf6109b0565b005b3480156101dd57600080fd5b506101e6610c71565b6040516101f391906115bd565b60405180910390f35b34801561020857600080fd5b50610223600480360381019061021e91906111b5565b610c97565b005b34801561023157600080fd5b5061023a610db8565b60405161024791906115bd565b60405180910390f35b61026a60048036038101906102659190611150565b610dde565b005b34801561027857600080fd5b50610281610fba565b60405161028e91906115bd565b60405180910390f35b3480156102a357600080fd5b506102ac610fe0565b6040516102b9919061173a565b60405180910390f35b3480156102ce57600080fd5b506102d76110b3565b6040516102e4919061173a565b60405180910390f35b3480156102f957600080fd5b506103026110b9565b60405161030f919061173a565b60405180910390f35b60008060009054906101000a900473ffffffffffffffffffffffffffffffffffffffff1673ffffffffffffffffffffffffffffffffffffffff166370a08231836040518263ffffffff1660e01b815260040161037491906115bd565b60206040518083038186803b15801561038c57600080fd5b505afa1580156103a0573d6000803e3d6000fd5b505050506040513d601f19601f820116820180604052508101906103c491906111de565b9050919050565b6000811161040e576040517f08c379a00000000000000000000000000000000000000000000000000000000081526004016104059061169a565b60405180910390fd5b61041733610318565b811115610459576040517f08c379a00000000000000000000000000000000000000000000000000000000081526004016104509061165a565b60405180910390fd5b6000809054906101000a900473ffffffffffffffffffffffffffffffffffffffff1673ffffffffffffffffffffffffffffffffffffffff16635c79febb3330846040518463ffffffff1660e01b81526004016104b7939291906115d8565b602060405180830381600087803b1580156104d157600080fd5b505af11580156104e5573d6000803e3d6000fd5b505050506040513d601f19601f82011682018060405250810190610509919061118c565b503373ffffffffffffffffffffffffffffffffffffffff166108fc61052d836110bf565b9081150290604051600060405180830381858888f19350505050158015610558573d6000803e3d6000fd5b507fa997a52566b1f8380f086c733e70d49a141eafece6addc432a411a73ec45c688813360405161058a92919061177e565b60405180910390a150565b6000600554820290506105a733610318565b8111156105e9576040517f08c379a00000000000000000000000000000000000000000000000000000000081526004016105e09061167a565b60405180910390fd5b6000809054906101000a900473ffffffffffffffffffffffffffffffffffffffff1673ffffffffffffffffffffffffffffffffffffffff16635c79febb33600160009054906101000a900473ffffffffffffffffffffffffffffffffffffffff16846040518463ffffffff1660e01b8152600401610669939291906115d8565b602060405180830381600087803b15801561068357600080fd5b505af1158015610697573d6000803e3d6000fd5b505050506040513d601f19601f820116820180604052508101906106bb919061118c565b5060008090505b8281101561084357600061271042336008546040516020016106e693929190611580565b6040516020818303038152906040528051906020012060001c8161070657fe5b069050600860008154809291906001019190505550600660003373ffffffffffffffffffffffffffffffffffffffff1673ffffffffffffffffffffffffffffffffffffffff1681526020019081526020016000208190806001815401808255809150506001900390600052602060002001600090919091909150556009819080600181540180825580915050600190039060005260206000200160009091909190915055336007600083815260200190815260200160002060006101000a81548173ffffffffffffffffffffffffffffffffffffffff021916908373ffffffffffffffffffffffffffffffffffffffff1602179055507fc050fb32d57ba0cfd6bf3bf1cc039866094f4506ec6d20be323decd380f86434813360405161082d92919061177e565b60405180910390a15080806001019150506106c2565b505050565b6060600660003373ffffffffffffffffffffffffffffffffffffffff1673ffffffffffffffffffffffffffffffffffffffff1681526020019081526020016000208054806020026020016040519081016040528092919081815260200182805480156108d357602002820191906000526020600020905b8154815260200190600101908083116108bf575b5050505050905090565b60008060009054906101000a900473ffffffffffffffffffffffffffffffffffffffff1673ffffffffffffffffffffffffffffffffffffffff166370a08231600260009054906101000a900473ffffffffffffffffffffffffffffffffffffffff166040518263ffffffff1660e01b815260040161095b91906115bd565b60206040518083038186803b15801561097357600080fd5b505afa158015610987573d6000803e3d6000fd5b505050506040513d601f19601f820116820180604052508101906109ab91906111de565b905090565b33600160009054906101000a900473ffffffffffffffffffffffffffffffffffffffff1673ffffffffffffffffffffffffffffffffffffffff168173ffffffffffffffffffffffffffffffffffffffff1614610a41576040517f08c379a0000000000000000000000000000000000000000000000000000000008152600401610a38906116fa565b60405180910390fd5b600060098054905011610a89576040517f08c379a0000000000000000000000000000000000000000000000000000000008152600401610a80906116ba565b60405180910390fd5b6000600980549050905060008142604051602001610aa79190611565565b6040516020818303038152906040528051906020012060001c81610ac757fe5b069050600060098281548110610ad957fe5b906000526020600020015490507fe00df1f71ab36fcc55efa263b875c947522a93d61e438dd616a6e1260c40ef8a81604051610b15919061173a565b60405180910390a16007600082815260200190815260200160002060009054906101000a900473ffffffffffffffffffffffffffffffffffffffff16600360006101000a81548173ffffffffffffffffffffffffffffffffffffffff021916908373ffffffffffffffffffffffffffffffffffffffff1602179055506000809054906101000a900473ffffffffffffffffffffffffffffffffffffffff1673ffffffffffffffffffffffffffffffffffffffff16635c79febb33600360009054906101000a900473ffffffffffffffffffffffffffffffffffffffff16610bfa610fe0565b6040518463ffffffff1660e01b8152600401610c18939291906115d8565b602060405180830381600087803b158015610c3257600080fd5b505af1158015610c46573d6000803e3d6000fd5b505050506040513d601f19601f82011682018060405250810190610c6a919061118c565b5050505050565b600160009054906101000a900473ffffffffffffffffffffffffffffffffffffffff1681565b33600160009054906101000a900473ffffffffffffffffffffffffffffffffffffffff1673ffffffffffffffffffffffffffffffffffffffff168173ffffffffffffffffffffffffffffffffffffffff1614610d28576040517f08c379a0000000000000000000000000000000000000000000000000000000008152600401610d1f906116fa565b60405180910390fd5b6000809054906101000a900473ffffffffffffffffffffffffffffffffffffffff1673ffffffffffffffffffffffffffffffffffffffff16631d43cc98836040518263ffffffff1660e01b8152600401610d82919061173a565b600060405180830381600087803b158015610d9c57600080fd5b505af1158015610db0573d6000803e3d6000fd5b505050505050565b600360009054906101000a900473ffffffffffffffffffffffffffffffffffffffff1681565b6000610de9826110bf565b905080341015610e2e576040517f08c379a0000000000000000000000000000000000000000000000000000000008152600401610e259061171a565b60405180910390fd5b600081340390503373ffffffffffffffffffffffffffffffffffffffff166108fc829081150290604051600060405180830381858888f19350505050158015610e7b573d6000803e3d6000fd5b506000610e866108dd565b905080841115610ecb576040517f08c379a0000000000000000000000000000000000000000000000000000000008152600401610ec2906116da565b60405180910390fd5b6000809054906101000a900473ffffffffffffffffffffffffffffffffffffffff1673ffffffffffffffffffffffffffffffffffffffff1663a9059cbb86866040518363ffffffff1660e01b8152600401610f2792919061160f565b602060405180830381600087803b158015610f4157600080fd5b505af1158015610f55573d6000803e3d6000fd5b505050506040513d601f19601f82011682018060405250810190610f79919061118c565b507fc5d46be962adb867acf29dce93ab611e9064bffee951e4db9e52c693f73f4c388486604051610fab929190611755565b60405180910390a15050505050565b600260009054906101000a900473ffffffffffffffffffffffffffffffffffffffff1681565b60008060009054906101000a900473ffffffffffffffffffffffffffffffffffffffff1673ffffffffffffffffffffffffffffffffffffffff166370a08231600160009054906101000a900473ffffffffffffffffffffffffffffffffffffffff166040518263ffffffff1660e01b815260040161105e91906115bd565b60206040518083038186803b15801561107657600080fd5b505afa15801561108a573d6000803e3d6000fd5b505050506040513d601f19601f820116820180604052508101906110ae91906111de565b905090565b60055481565b60045481565b6000670de0b6b3a764000082029050919050565b6000813590506110e2816118bc565b92915050565b6000815190506110f7816118d3565b92915050565b60008135905061110c816118ea565b92915050565b600081519050611121816118ea565b92915050565b60006020828403121561113957600080fd5b6000611147848285016110d3565b91505092915050565b6000806040838503121561116357600080fd5b6000611171858286016110d3565b9250506020611182858286016110fd565b9150509250929050565b60006020828403121561119e57600080fd5b60006111ac848285016110e8565b91505092915050565b6000602082840312156111c757600080fd5b60006111d5848285016110fd565b91505092915050565b6000602082840312156111f057600080fd5b60006111fe84828501611112565b91505092915050565b60006112138383611530565b60208301905092915050565b6112288161184b565b82525050565b61123f61123a82611803565b611881565b82525050565b61124e816117f1565b82525050565b600061125f826117b7565b61126981856117cf565b9350611274836117a7565b8060005b838110156112a557815161128c8882611207565b9750611297836117c2565b925050600181019050611278565b5085935050505092915050565b60006112bf6034836117e0565b91507f4e6f207469656e6573206c612063616e746964616420646520746f6b656e732060008301527f71756520646573656173206465766f6c7665722e0000000000000000000000006020830152604082019050919050565b6000611325601d836117e0565b91507f4e656365736974617320636f6d70726172206d617320746f6b656e732e0000006000830152602082019050919050565b6000611365602f836117e0565b91507f4e6563657369746173206465766f6c76657220756e206e756d65726f20706f7360008301527f697469766f20646520746f6b656e7300000000000000000000000000000000006020830152604082019050919050565b60006113cb6018836117e0565b91507f4e6f2068617920626f6c65746f7320636f6d707261646f7300000000000000006000830152602082019050919050565b600061140b6024836117e0565b91507f436f6d70726120756e206ec3ba6d65726f20646520746f6b656e73206164656360008301527f7561646f000000000000000000000000000000000000000000000000000000006020830152604082019050919050565b6000611471602d836117e0565b91507f4e6f207469656e6573207065726d69736f73207061726120656a65637574617260008301527f20657374612066756e63696f6e000000000000000000000000000000000000006020830152604082019050919050565b60006114d76029836117e0565b91507f436f6d707261206d656e6f7320746f6b656e73206f207061676120636f6e206d60008301527f61732065746865727300000000000000000000000000000000000000000000006020830152604082019050919050565b61153981611841565b82525050565b61154881611841565b82525050565b61155f61155a82611841565b6118a5565b82525050565b6000611571828461154e565b60208201915081905092915050565b600061158c828661154e565b60208201915061159c828561122e565b6014820191506115ac828461154e565b602082019150819050949350505050565b60006020820190506115d26000830184611245565b92915050565b60006060820190506115ed600083018661121f565b6115fa6020830185611245565b611607604083018461153f565b949350505050565b60006040820190506116246000830185611245565b611631602083018461153f565b9392505050565b600060208201905081810360008301526116528184611254565b905092915050565b60006020820190508181036000830152611673816112b2565b9050919050565b6000602082019050818103600083015261169381611318565b9050919050565b600060208201905081810360008301526116b381611358565b9050919050565b600060208201905081810360008301526116d3816113be565b9050919050565b600060208201905081810360008301526116f3816113fe565b9050919050565b6000602082019050818103600083015261171381611464565b9050919050565b60006020820190508181036000830152611733816114ca565b9050919050565b600060208201905061174f600083018461153f565b92915050565b600060408201905061176a600083018561153f565b6117776020830184611245565b9392505050565b6000604082019050611793600083018561153f565b6117a0602083018461121f565b9392505050565b6000819050602082019050919050565b600081519050919050565b6000602082019050919050565b600082825260208201905092915050565b600082825260208201905092915050565b60006117fc82611821565b9050919050565b600061180e82611821565b9050919050565b60008115159050919050565b600073ffffffffffffffffffffffffffffffffffffffff82169050919050565b6000819050919050565b60006118568261185d565b9050919050565b60006118688261186f565b9050919050565b600061187a82611821565b9050919050565b600061188c82611893565b9050919050565b600061189e826118af565b9050919050565b6000819050919050565b60008160601b9050919050565b6118c5816117f1565b81146118d057600080fd5b50565b6118dc81611815565b81146118e757600080fd5b50565b6118f381611841565b81146118fe57600080fd5b5056fea2646970667358221220212760a8a4f68d364e780ea837f058bb4e91c4050d9f6d9e8d04611424f2d1ae64736f6c63430006080033608060405234801561001057600080fd5b5060405161109d38038061109d83398181016040528101906100329190610099565b806002819055506002546000803373ffffffffffffffffffffffffffffffffffffffff1673ffffffffffffffffffffffffffffffffffffffff16815260200190815260200160002081905550506100e3565b600081519050610093816100cc565b92915050565b6000602082840312156100ab57600080fd5b60006100b984828501610084565b91505092915050565b6000819050919050565b6100d5816100c2565b81146100e057600080fd5b50565b610fab806100f26000396000f3fe608060405234801561001057600080fd5b50600436106100a95760003560e01c80635c79febb116100715780635c79febb1461016657806370a082311461019657806376809ce3146101c657806395d89b41146101e4578063a9059cbb14610202578063dd62ed3e14610232576100a9565b806306fdde03146100ae578063095ea7b3146100cc57806318160ddd146100fc5780631d43cc981461011a57806323b872dd14610136575b600080fd5b6100b6610262565b6040516100c39190610e3a565b60405180910390f35b6100e660048036038101906100e19190610d54565b61029b565b6040516100f39190610e1f565b60405180910390f35b61010461038d565b6040516101119190610e5c565b60405180910390f35b610134600480360381019061012f9190610d90565b610397565b005b610150600480360381019061014b9190610d05565b6103f6565b60405161015d9190610e1f565b60405180910390f35b610180600480360381019061017b9190610d05565b610771565b60405161018d9190610e1f565b60405180910390f35b6101b060048036038101906101ab9190610ca0565b610954565b6040516101bd9190610e5c565b60405180910390f35b6101ce61099c565b6040516101db9190610e77565b60405180910390f35b6101ec6109a1565b6040516101f99190610e3a565b60405180910390f35b61021c60048036038101906102179190610d54565b6109da565b6040516102299190610e1f565b60405180910390f35b61024c60048036038101906102479190610cc9565b610bbc565b6040516102599190610e5c565b60405180910390f35b6040518060400160405280601181526020017f4552433230426c6f636b636861696e415a00000000000000000000000000000081525081565b600081600160003373ffffffffffffffffffffffffffffffffffffffff1673ffffffffffffffffffffffffffffffffffffffff16815260200190815260200160002060008573ffffffffffffffffffffffffffffffffffffffff1673ffffffffffffffffffffffffffffffffffffffff168152602001908152602001600020819055508273ffffffffffffffffffffffffffffffffffffffff163373ffffffffffffffffffffffffffffffffffffffff167f8c5be1e5ebec7d5bd14f71427d1e84f3dd0314c0f7b2291e5b200ac8c7c3b9258460405161037b9190610e5c565b60405180910390a36001905092915050565b6000600254905090565b80600260008282540192505081905550806000803373ffffffffffffffffffffffffffffffffffffffff1673ffffffffffffffffffffffffffffffffffffffff1681526020019081526020016000206000828254019250508190555050565b60008060008573ffffffffffffffffffffffffffffffffffffffff1673ffffffffffffffffffffffffffffffffffffffff1681526020019081526020016000205482111561044357600080fd5b600160008573ffffffffffffffffffffffffffffffffffffffff1673ffffffffffffffffffffffffffffffffffffffff16815260200190815260200160002060003373ffffffffffffffffffffffffffffffffffffffff1673ffffffffffffffffffffffffffffffffffffffff168152602001908152602001600020548211156104cc57600080fd5b61051d826000808773ffffffffffffffffffffffffffffffffffffffff1673ffffffffffffffffffffffffffffffffffffffff16815260200190815260200160002054610c4390919063ffffffff16565b6000808673ffffffffffffffffffffffffffffffffffffffff1673ffffffffffffffffffffffffffffffffffffffff168152602001908152602001600020819055506105ee82600160008773ffffffffffffffffffffffffffffffffffffffff1673ffffffffffffffffffffffffffffffffffffffff16815260200190815260200160002060003373ffffffffffffffffffffffffffffffffffffffff1673ffffffffffffffffffffffffffffffffffffffff16815260200190815260200160002054610c4390919063ffffffff16565b600160008673ffffffffffffffffffffffffffffffffffffffff1673ffffffffffffffffffffffffffffffffffffffff16815260200190815260200160002060003373ffffffffffffffffffffffffffffffffffffffff1673ffffffffffffffffffffffffffffffffffffffff168152602001908152602001600020819055506106bf826000808673ffffffffffffffffffffffffffffffffffffffff1673ffffffffffffffffffffffffffffffffffffffff16815260200190815260200160002054610c5a90919063ffffffff16565b6000808573ffffffffffffffffffffffffffffffffffffffff1673ffffffffffffffffffffffffffffffffffffffff168152602001908152602001600020819055508273ffffffffffffffffffffffffffffffffffffffff168473ffffffffffffffffffffffffffffffffffffffff167fddf252ad1be2c89b69c2b068fc378daa952ba7f163c4a11628f55a4df523b3ef8460405161075e9190610e5c565b60405180910390a3600190509392505050565b60008060008573ffffffffffffffffffffffffffffffffffffffff1673ffffffffffffffffffffffffffffffffffffffff168152602001908152602001600020548211156107be57600080fd5b61080f826000808773ffffffffffffffffffffffffffffffffffffffff1673ffffffffffffffffffffffffffffffffffffffff16815260200190815260200160002054610c4390919063ffffffff16565b6000808673ffffffffffffffffffffffffffffffffffffffff1673ffffffffffffffffffffffffffffffffffffffff168152602001908152602001600020819055506108a2826000808673ffffffffffffffffffffffffffffffffffffffff1673ffffffffffffffffffffffffffffffffffffffff16815260200190815260200160002054610c5a90919063ffffffff16565b6000808573ffffffffffffffffffffffffffffffffffffffff1673ffffffffffffffffffffffffffffffffffffffff168152602001908152602001600020819055508273ffffffffffffffffffffffffffffffffffffffff168473ffffffffffffffffffffffffffffffffffffffff167fddf252ad1be2c89b69c2b068fc378daa952ba7f163c4a11628f55a4df523b3ef846040516109419190610e5c565b60405180910390a3600190509392505050565b60008060008373ffffffffffffffffffffffffffffffffffffffff1673ffffffffffffffffffffffffffffffffffffffff168152602001908152602001600020549050919050565b600281565b6040518060400160405280600381526020017f504a54000000000000000000000000000000000000000000000000000000000081525081565b60008060003373ffffffffffffffffffffffffffffffffffffffff1673ffffffffffffffffffffffffffffffffffffffff16815260200190815260200160002054821115610a2757600080fd5b610a78826000803373ffffffffffffffffffffffffffffffffffffffff1673ffffffffffffffffffffffffffffffffffffffff16815260200190815260200160002054610c4390919063ffffffff16565b6000803373ffffffffffffffffffffffffffffffffffffffff1673ffffffffffffffffffffffffffffffffffffffff16815260200190815260200160002081905550610b0b826000808673ffffffffffffffffffffffffffffffffffffffff1673ffffffffffffffffffffffffffffffffffffffff16815260200190815260200160002054610c5a90919063ffffffff16565b6000808573ffffffffffffffffffffffffffffffffffffffff1673ffffffffffffffffffffffffffffffffffffffff168152602001908152602001600020819055508273ffffffffffffffffffffffffffffffffffffffff163373ffffffffffffffffffffffffffffffffffffffff167fddf252ad1be2c89b69c2b068fc378daa952ba7f163c4a11628f55a4df523b3ef84604051610baa9190610e5c565b60405180910390a36001905092915050565b6000600160008473ffffffffffffffffffffffffffffffffffffffff1673ffffffffffffffffffffffffffffffffffffffff16815260200190815260200160002060008373ffffffffffffffffffffffffffffffffffffffff1673ffffffffffffffffffffffffffffffffffffffff16815260200190815260200160002054905092915050565b600082821115610c4f57fe5b818303905092915050565b600080828401905083811015610c6c57fe5b8091505092915050565b600081359050610c8581610f47565b92915050565b600081359050610c9a81610f5e565b92915050565b600060208284031215610cb257600080fd5b6000610cc084828501610c76565b91505092915050565b60008060408385031215610cdc57600080fd5b6000610cea85828601610c76565b9250506020610cfb85828601610c76565b9150509250929050565b600080600060608486031215610d1a57600080fd5b6000610d2886828701610c76565b9350506020610d3986828701610c76565b9250506040610d4a86828701610c8b565b9150509250925092565b60008060408385031215610d6757600080fd5b6000610d7585828601610c76565b9250506020610d8685828601610c8b565b9150509250929050565b600060208284031215610da257600080fd5b6000610db084828501610c8b565b91505092915050565b610dc281610ec0565b82525050565b6000610dd382610e92565b610ddd8185610e9d565b9350610ded818560208601610f03565b610df681610f36565b840191505092915050565b610e0a81610eec565b82525050565b610e1981610ef6565b82525050565b6000602082019050610e346000830184610db9565b92915050565b60006020820190508181036000830152610e548184610dc8565b905092915050565b6000602082019050610e716000830184610e01565b92915050565b6000602082019050610e8c6000830184610e10565b92915050565b600081519050919050565b600082825260208201905092915050565b6000610eb982610ecc565b9050919050565b60008115159050919050565b600073ffffffffffffffffffffffffffffffffffffffff82169050919050565b6000819050919050565b600060ff82169050919050565b60005b83811015610f21578082015181840152602081019050610f06565b83811115610f30576000848401525b50505050565b6000601f19601f8301169050919050565b610f5081610eae565b8114610f5b57600080fd5b50565b610f6781610eec565b8114610f7257600080fd5b5056fea2646970667358221220398086eca8d5d2161de56cce8f04be5deb686c121278a951c08dc5c85c29263e64736f6c63430006080033",
  "immutableReferences": {},
  "source": "// SPDX-License-Identifier: MIT\r\npragma solidity >0.4.4 <0.7.0;\r\npragma experimental ABIEncoderV2;\r\nimport \"./ERC20.sol\";\r\n\r\ncontract Loteria {\r\n\r\n    // Instancia del contrato Token\r\n    ERC20Basic private token;\r\n\r\n    // Direcciones\r\n    address public owner;\r\n    address public contrato;\r\n    address public direccionGanador;\r\n\r\n    // Nmero de tokens a crear\r\n    uint public tokens_creados = 10000;\r\n\r\n    // Evento de compra de tokens\r\n    event ComprandoTokens(uint, address);\r\n\r\n    constructor() public {\r\n        token = new ERC20Basic(tokens_creados);\r\n        owner = msg.sender;\r\n        contrato = address(this);\r\n    }\r\n\r\n    // ------------- TOKEN ------------- \r\n    // Estableciendo precio del token\r\n    function precioTokens(uint _numTokens) internal pure returns(uint){\r\n        return _numTokens*(1 ether);\r\n    }\r\n\r\n    // Generar ms tokens por la loteria\r\n    function generarTokens(uint _numTokens) public Unicamente(msg.sender){\r\n        token.increaseTotalSupply(_numTokens);\r\n    }\r\n\r\n    // Modificador para hacer funciones solamente accesibles por el owner del contrato\r\n    modifier Unicamente(address _direccion){\r\n        require(_direccion == owner, \"No tienes permisos para ejecutar esta funcion\");\r\n        _;\r\n    }\r\n\r\n    // Comprar tokens para comprar boletos/tickets para la loteria\r\n    function comprarTokens(address _propietario, uint _numTokens) public payable {\r\n        // Calcular el coste de los tokens\r\n        uint costo = precioTokens(_numTokens);\r\n        // Se requiere que el valor de ethers pagados sea equivalente al coste\r\n        require(msg.value >= costo, \"Compra menos tokens o paga con mas ethers\");\r\n        // Diferencia a pagar\r\n        uint returnValue = msg.value - costo;\r\n        // Transferencia de la diferencia\r\n        msg.sender.transfer(returnValue);\r\n        // Obtener el balance de tokens del contrato\r\n        uint balance = tokensDisponibles();\r\n        // Filtro para evaluar los tokens a comprar con los tokens disponibles\r\n        require(_numTokens <= balance, \"Compra un nmero de tokens adecuado\");\r\n        // Transferencia de tokens al comprador\r\n        token.transfer(_propietario, _numTokens);\r\n        // Emitir el evento de compra de tokens\r\n        emit ComprandoTokens(_numTokens, _propietario);\r\n    }\r\n\r\n    // Balance de tokens en el contrato de loteria\r\n    function tokensDisponibles() public view returns(uint){\r\n        return token.balanceOf(contrato);\r\n    }\r\n\r\n    // Obtener el balance de tokens acumulados en el bote\r\n    function bote() public view returns(uint){\r\n        return token.balanceOf(owner);\r\n    }\r\n\r\n    // Ver la cantidad de tokens de un usuario\r\n    function misTokens(address _propietario) public view returns(uint){\r\n        return token.balanceOf(_propietario);\r\n    }\r\n\r\n    // ------------- LOTERIA ------------- \r\n    // Precio de boleto en tokens\r\n    uint public precioBoleto = 5;\r\n    // Relacion entre la persona que compra los boletos y los numeros de los boletos\r\n    mapping(address => uint[]) idPersona_boletos;\r\n    // Relacion necesaria para identificar al ganador\r\n    mapping(uint => address) ADN_boleto;\r\n    // Numero aleatorio\r\n    uint randNonce = 0;\r\n    // Registro de los boletos generados\r\n    uint[] boletosComprados;\r\n    // Eventos\r\n    event boletoComprado(uint, address);        // Evento cuando se compran boletos\r\n    event boletoGanador(uint);                  // Evento del ganador\r\n    event tokensDevueltos(uint, address);       // Evento para devoler los tokens\r\n\r\n    // Comprar boletos\r\n    function comprarBoletos(uint _boletos) public {\r\n        // Precio total de los boletos a comprar\r\n        uint precioTotal = _boletos*precioBoleto;\r\n        // Filtrado de los tokens a pagar\r\n        require(precioTotal <= misTokens(msg.sender), \"Necesitas comprar mas tokens.\");\r\n\r\n        // Transferencia de tokens al owner -> bote/premio \r\n        /* \r\n        El cliente paga el boleto en tokens:\r\n        - Ha sido necesario crear una funcion en ERC20.sol con el nombre de 'transferLoteria' \r\n        debido a que en caso de usar el transfer o transferFrom las direcciones que se escogan\r\n        para realizar la transaccin eran equivocadas. Ya que el msg.sender que recibia el metodo \r\n        transferFrom era la direccin del contrato. Y debe ser la direccin de la persona fsica.\r\n        */\r\n        token.transferLoteria(msg.sender, owner, precioTotal);\r\n\r\n        /* \r\n        Lo que haria esto es tomar la marca del tiempo actual (now), el msg.sender y un nonce.\r\n        Es un nmero que solo se utiliza una vez para que no ejecutes dos veces la misma funcin\r\n        de hash con los mismos parmetros de entrada en incremento. \r\n        Luego se utiliza keccak256 para convertir estas entradas a un hash aleatorio, convertir\r\n        ese hash a un uint y luego utilizamos % 10000 para tomar los ltimos 4 dgitos.\r\n        Dando un valor aleatorio entre 0 - 9999.\r\n        */\r\n        for(uint i=0; i < _boletos; i++){\r\n            uint random = uint(keccak256(abi.encodePacked(now, msg.sender, randNonce))) % 10000;\r\n            randNonce++;\r\n            // Almacenamos los datos de los boletos\r\n            idPersona_boletos[msg.sender].push(random);\r\n            // Numero de boleto comprado\r\n            boletosComprados.push(random);\r\n            // Asignacion del ADN del boleto para tener un ganador\r\n            ADN_boleto[random] = msg.sender;\r\n            // Emision del evento\r\n            emit boletoComprado(random, msg.sender);\r\n        }\r\n    }\r\n\r\n    // Visualizar el numero de boletos de una persona\r\n    function tusBoletos() public view returns(uint[] memory){\r\n        return idPersona_boletos[msg.sender];\r\n    }\r\n\r\n    // Generar un ganador e ingresarle los tokens\r\n    function generarGanador() public Unicamente(msg.sender){\r\n        // Debe haber boletos comprados para generar un ganador\r\n        require(boletosComprados.length > 0, \"No hay boletos comprados\");\r\n        // Declaracion de la longitud del array\r\n        uint longitud = boletosComprados.length;\r\n        // Aleatoriamente elijo un numero entre 0 y la longitud\r\n        // 1 - Eleccion de una posicion aleatoria del array\r\n        uint posicionArray = uint(uint(keccak256(abi.encodePacked(now))) % longitud);\r\n        // 2 - Seleccion del numero aleatorio mediante la posicion del array aleatoria\r\n        uint eleccion = boletosComprados[posicionArray];\r\n\r\n        // Emision del evento del gamador\r\n        emit boletoGanador(eleccion);\r\n        // Recuperar la direccion del ganador\r\n        direccionGanador = ADN_boleto[eleccion];\r\n        // Enviarle los tokens del premio al ganador\r\n        token.transferLoteria(msg.sender, direccionGanador, bote());\r\n    }\r\n\r\n    // Devolucion de los tokens\r\n    function devolverTokens(uint _numTokens) public payable{\r\n        // El numero de tokens a devolver debe ser mayor a 0\r\n        require(_numTokens > 0, \"Necesitas devolver un numero positivo de tokens\");\r\n        // El usuario debe tener los tokens que desea devolver\r\n        require(_numTokens <= misTokens(msg.sender), \"No tienes la cantidad de tokens que deseas devolver.\");\r\n\r\n        // DEVOLUCION:\r\n        // 1. El cliente devuelve los tokens\r\n        // 2. La loteria paga los tokens devueltos\r\n        token.transferLoteria(msg.sender, address(this), _numTokens);\r\n        msg.sender.transfer(precioTokens(_numTokens));\r\n        // Emision del evento\r\n        emit tokensDevueltos(_numTokens, msg.sender);\r\n    }\r\n}",
  "sourcePath": "C:\\laragon\\www\\dapp-loteria\\src\\contracts\\Loteria.sol",
  "compiler": {
    "name": "solc",
    "version": "0.6.8+commit.0bbfe453.Emscripten.clang"
  },
  "schemaVersion": "3.4.4",
  "updatedAt": "2021-12-23T18:01:17.440Z",
  "networkType": "ethereum",
  "devdoc": {
    "methods": {}
  },
  "userdoc": {
    "methods": {}
  }
}